{
  "contractName": "SecureUpdate",
  "abi": [
    {
      "inputs": [],
      "stateMutability": "nonpayable",
      "type": "constructor"
    },
    {
      "inputs": [],
      "name": "AccessControlBadConfirmation",
      "type": "error"
    },
    {
      "inputs": [
        {
          "internalType": "address",
          "name": "account",
          "type": "address"
        },
        {
          "internalType": "bytes32",
          "name": "neededRole",
          "type": "bytes32"
        }
      ],
      "name": "AccessControlUnauthorizedAccount",
      "type": "error"
    },
    {
      "inputs": [
        {
          "internalType": "address",
          "name": "spender",
          "type": "address"
        },
        {
          "internalType": "uint256",
          "name": "allowance",
          "type": "uint256"
        },
        {
          "internalType": "uint256",
          "name": "needed",
          "type": "uint256"
        }
      ],
      "name": "ERC20InsufficientAllowance",
      "type": "error"
    },
    {
      "inputs": [
        {
          "internalType": "address",
          "name": "sender",
          "type": "address"
        },
        {
          "internalType": "uint256",
          "name": "balance",
          "type": "uint256"
        },
        {
          "internalType": "uint256",
          "name": "needed",
          "type": "uint256"
        }
      ],
      "name": "ERC20InsufficientBalance",
      "type": "error"
    },
    {
      "inputs": [
        {
          "internalType": "address",
          "name": "approver",
          "type": "address"
        }
      ],
      "name": "ERC20InvalidApprover",
      "type": "error"
    },
    {
      "inputs": [
        {
          "internalType": "address",
          "name": "receiver",
          "type": "address"
        }
      ],
      "name": "ERC20InvalidReceiver",
      "type": "error"
    },
    {
      "inputs": [
        {
          "internalType": "address",
          "name": "sender",
          "type": "address"
        }
      ],
      "name": "ERC20InvalidSender",
      "type": "error"
    },
    {
      "inputs": [
        {
          "internalType": "address",
          "name": "spender",
          "type": "address"
        }
      ],
      "name": "ERC20InvalidSpender",
      "type": "error"
    },
    {
      "anonymous": false,
      "inputs": [
        {
          "indexed": true,
          "internalType": "address",
          "name": "owner",
          "type": "address"
        },
        {
          "indexed": true,
          "internalType": "address",
          "name": "spender",
          "type": "address"
        },
        {
          "indexed": false,
          "internalType": "uint256",
          "name": "value",
          "type": "uint256"
        }
      ],
      "name": "Approval",
      "type": "event"
    },
    {
      "anonymous": false,
      "inputs": [
        {
          "indexed": true,
          "internalType": "bytes32",
          "name": "role",
          "type": "bytes32"
        },
        {
          "indexed": true,
          "internalType": "bytes32",
          "name": "previousAdminRole",
          "type": "bytes32"
        },
        {
          "indexed": true,
          "internalType": "bytes32",
          "name": "newAdminRole",
          "type": "bytes32"
        }
      ],
      "name": "RoleAdminChanged",
      "type": "event"
    },
    {
      "anonymous": false,
      "inputs": [
        {
          "indexed": true,
          "internalType": "bytes32",
          "name": "role",
          "type": "bytes32"
        },
        {
          "indexed": true,
          "internalType": "address",
          "name": "account",
          "type": "address"
        },
        {
          "indexed": true,
          "internalType": "address",
          "name": "sender",
          "type": "address"
        }
      ],
      "name": "RoleGranted",
      "type": "event"
    },
    {
      "anonymous": false,
      "inputs": [
        {
          "indexed": true,
          "internalType": "bytes32",
          "name": "role",
          "type": "bytes32"
        },
        {
          "indexed": true,
          "internalType": "address",
          "name": "account",
          "type": "address"
        },
        {
          "indexed": true,
          "internalType": "address",
          "name": "sender",
          "type": "address"
        }
      ],
      "name": "RoleRevoked",
      "type": "event"
    },
    {
      "anonymous": false,
      "inputs": [
        {
          "indexed": true,
          "internalType": "address",
          "name": "from",
          "type": "address"
        },
        {
          "indexed": true,
          "internalType": "address",
          "name": "to",
          "type": "address"
        },
        {
          "indexed": false,
          "internalType": "uint256",
          "name": "value",
          "type": "uint256"
        }
      ],
      "name": "Transfer",
      "type": "event"
    },
    {
      "inputs": [],
      "name": "DEFAULT_ADMIN_ROLE",
      "outputs": [
        {
          "internalType": "bytes32",
          "name": "",
          "type": "bytes32"
        }
      ],
      "stateMutability": "view",
      "type": "function"
    },
    {
      "inputs": [
        {
          "internalType": "address",
          "name": "owner",
          "type": "address"
        },
        {
          "internalType": "address",
          "name": "spender",
          "type": "address"
        }
      ],
      "name": "allowance",
      "outputs": [
        {
          "internalType": "uint256",
          "name": "",
          "type": "uint256"
        }
      ],
      "stateMutability": "view",
      "type": "function"
    },
    {
      "inputs": [
        {
          "internalType": "address",
          "name": "spender",
          "type": "address"
        },
        {
          "internalType": "uint256",
          "name": "value",
          "type": "uint256"
        }
      ],
      "name": "approve",
      "outputs": [
        {
          "internalType": "bool",
          "name": "",
          "type": "bool"
        }
      ],
      "stateMutability": "nonpayable",
      "type": "function"
    },
    {
      "inputs": [
        {
          "internalType": "address",
          "name": "account",
          "type": "address"
        }
      ],
      "name": "balanceOf",
      "outputs": [
        {
          "internalType": "uint256",
          "name": "",
          "type": "uint256"
        }
      ],
      "stateMutability": "view",
      "type": "function"
    },
    {
      "inputs": [],
      "name": "decimals",
      "outputs": [
        {
          "internalType": "uint8",
          "name": "",
          "type": "uint8"
        }
      ],
      "stateMutability": "view",
      "type": "function"
    },
    {
      "inputs": [
        {
          "internalType": "bytes32",
          "name": "role",
          "type": "bytes32"
        }
      ],
      "name": "getRoleAdmin",
      "outputs": [
        {
          "internalType": "bytes32",
          "name": "",
          "type": "bytes32"
        }
      ],
      "stateMutability": "view",
      "type": "function"
    },
    {
      "inputs": [
        {
          "internalType": "bytes32",
          "name": "role",
          "type": "bytes32"
        },
        {
          "internalType": "address",
          "name": "account",
          "type": "address"
        }
      ],
      "name": "grantRole",
      "outputs": [],
      "stateMutability": "nonpayable",
      "type": "function"
    },
    {
      "inputs": [
        {
          "internalType": "bytes32",
          "name": "role",
          "type": "bytes32"
        },
        {
          "internalType": "address",
          "name": "account",
          "type": "address"
        }
      ],
      "name": "hasRole",
      "outputs": [
        {
          "internalType": "bool",
          "name": "",
          "type": "bool"
        }
      ],
      "stateMutability": "view",
      "type": "function"
    },
    {
      "inputs": [],
      "name": "name",
      "outputs": [
        {
          "internalType": "string",
          "name": "",
          "type": "string"
        }
      ],
      "stateMutability": "view",
      "type": "function"
    },
    {
      "inputs": [
        {
          "internalType": "bytes32",
          "name": "role",
          "type": "bytes32"
        },
        {
          "internalType": "address",
          "name": "callerConfirmation",
          "type": "address"
        }
      ],
      "name": "renounceRole",
      "outputs": [],
      "stateMutability": "nonpayable",
      "type": "function"
    },
    {
      "inputs": [
        {
          "internalType": "bytes32",
          "name": "role",
          "type": "bytes32"
        },
        {
          "internalType": "address",
          "name": "account",
          "type": "address"
        }
      ],
      "name": "revokeRole",
      "outputs": [],
      "stateMutability": "nonpayable",
      "type": "function"
    },
    {
      "inputs": [
        {
          "internalType": "bytes4",
          "name": "interfaceId",
          "type": "bytes4"
        }
      ],
      "name": "supportsInterface",
      "outputs": [
        {
          "internalType": "bool",
          "name": "",
          "type": "bool"
        }
      ],
      "stateMutability": "view",
      "type": "function"
    },
    {
      "inputs": [],
      "name": "symbol",
      "outputs": [
        {
          "internalType": "string",
          "name": "",
          "type": "string"
        }
      ],
      "stateMutability": "view",
      "type": "function"
    },
    {
      "inputs": [],
      "name": "totalSupply",
      "outputs": [
        {
          "internalType": "uint256",
          "name": "",
          "type": "uint256"
        }
      ],
      "stateMutability": "view",
      "type": "function"
    },
    {
      "inputs": [
        {
          "internalType": "address",
          "name": "to",
          "type": "address"
        },
        {
          "internalType": "uint256",
          "name": "value",
          "type": "uint256"
        }
      ],
      "name": "transfer",
      "outputs": [
        {
          "internalType": "bool",
          "name": "",
          "type": "bool"
        }
      ],
      "stateMutability": "nonpayable",
      "type": "function"
    },
    {
      "inputs": [
        {
          "internalType": "address",
          "name": "from",
          "type": "address"
        },
        {
          "internalType": "address",
          "name": "to",
          "type": "address"
        },
        {
          "internalType": "uint256",
          "name": "value",
          "type": "uint256"
        }
      ],
      "name": "transferFrom",
      "outputs": [
        {
          "internalType": "bool",
          "name": "",
          "type": "bool"
        }
      ],
      "stateMutability": "nonpayable",
      "type": "function"
    },
    {
      "inputs": [
        {
          "internalType": "uint8",
          "name": "_model",
          "type": "uint8"
        }
      ],
      "name": "hasUpdate",
      "outputs": [
        {
          "internalType": "bool",
          "name": "",
          "type": "bool"
        }
      ],
      "stateMutability": "view",
      "type": "function"
    },
    {
      "inputs": [
        {
          "internalType": "string",
          "name": "_key",
          "type": "string"
        },
        {
          "internalType": "string",
          "name": "_checksum",
          "type": "string"
        },
        {
          "internalType": "string",
          "name": "_cid",
          "type": "string"
        },
        {
          "internalType": "string",
          "name": "_updateVersion",
          "type": "string"
        },
        {
          "internalType": "uint8",
          "name": "_model",
          "type": "uint8"
        }
      ],
      "name": "addUpdate",
      "outputs": [],
      "stateMutability": "nonpayable",
      "type": "function"
    },
    {
      "inputs": [
        {
          "internalType": "uint8",
          "name": "_model",
          "type": "uint8"
        }
      ],
      "name": "fetchUpdate",
      "outputs": [
        {
          "internalType": "string",
          "name": "",
          "type": "string"
        },
        {
          "internalType": "string",
          "name": "",
          "type": "string"
        },
        {
          "internalType": "string",
          "name": "",
          "type": "string"
        },
        {
          "internalType": "string",
          "name": "",
          "type": "string"
        }
      ],
      "stateMutability": "view",
      "type": "function"
    },
    {
      "inputs": [
        {
          "internalType": "uint8",
          "name": "_model",
          "type": "uint8"
        },
        {
          "internalType": "bool",
          "name": "_status",
          "type": "bool"
        }
      ],
      "name": "updateUpdateStatus",
      "outputs": [],
      "stateMutability": "nonpayable",
      "type": "function"
    },
    {
      "inputs": [
        {
          "internalType": "uint8",
          "name": "_model",
          "type": "uint8"
        },
        {
          "internalType": "address",
          "name": "_vehicle",
          "type": "address"
        }
      ],
      "name": "addVehicle",
      "outputs": [],
      "stateMutability": "nonpayable",
      "type": "function"
    },
    {
      "inputs": [
        {
          "internalType": "address",
          "name": "_address",
          "type": "address"
        }
      ],
      "name": "grantAdmin",
      "outputs": [],
      "stateMutability": "nonpayable",
      "type": "function"
    },
    {
      "inputs": [
        {
          "internalType": "address",
          "name": "_address",
          "type": "address"
        }
      ],
      "name": "revokeAdmin",
      "outputs": [],
      "stateMutability": "nonpayable",
      "type": "function"
    }
  ],
  "bytecode": "0x608060405260405180608001604052807fdf8b4c520ffe197c5343c6f5aec59570151ef9a492f2c624fd45ddde6135ec4281526020017f5ad50eefb6211be2f341fb25b920118a8b09a64ed4d9cb11d20268f90ac1df3081526020017f3501bcd8084269c4f1b356dbd266711c980769a06823524eed0a541b9f0ad0c381526020017facf81fbdf047ba9ac0ec213a2f1b90ced42a8c0a073a5104cb1966d83f1a69d18152506006906004620000b7929190620002f7565b50348015620000c4575f80fd5b506040518060400160405280600781526020017f4d79546f6b656e000000000000000000000000000000000000000000000000008152506040518060400160405280600381526020017f544b4e00000000000000000000000000000000000000000000000000000000008152508160039081620001429190620005bd565b508060049081620001549190620005bd565b505050620001897fdf8b4c520ffe197c5343c6f5aec59570151ef9a492f2c624fd45ddde6135ec42336200019060201b60201c565b50620006a1565b5f620001a383836200028c60201b60201c565b6200028257600160055f8581526020019081526020015f205f015f8473ffffffffffffffffffffffffffffffffffffffff1673ffffffffffffffffffffffffffffffffffffffff1681526020019081526020015f205f6101000a81548160ff0219169083151502179055506200021e620002f060201b60201c565b73ffffffffffffffffffffffffffffffffffffffff168273ffffffffffffffffffffffffffffffffffffffff16847f2f8788117e7eff1d82e926ec794901d17c78024a50270940304540a733656f0d60405160405180910390a46001905062000286565b5f90505b92915050565b5f60055f8481526020019081526020015f205f015f8373ffffffffffffffffffffffffffffffffffffffff1673ffffffffffffffffffffffffffffffffffffffff1681526020019081526020015f205f9054906101000a900460ff16905092915050565b5f33905090565b826004810192821562000329579160200282015b82811115620003285782518255916020019190600101906200030b565b5b5090506200033891906200033c565b5090565b5b8082111562000355575f815f9055506001016200033d565b5090565b5f81519050919050565b7f4e487b71000000000000000000000000000000000000000000000000000000005f52604160045260245ffd5b7f4e487b71000000000000000000000000000000000000000000000000000000005f52602260045260245ffd5b5f6002820490506001821680620003d557607f821691505b602082108103620003eb57620003ea62000390565b5b50919050565b5f819050815f5260205f209050919050565b5f6020601f8301049050919050565b5f82821b905092915050565b5f600883026200044f7fffffffffffffffffffffffffffffffffffffffffffffffffffffffffffffffff8262000412565b6200045b868362000412565b95508019841693508086168417925050509392505050565b5f819050919050565b5f819050919050565b5f620004a56200049f620004998462000473565b6200047c565b62000473565b9050919050565b5f819050919050565b620004c08362000485565b620004d8620004cf82620004ac565b8484546200041e565b825550505050565b5f90565b620004ee620004e0565b620004fb818484620004b5565b505050565b5b818110156200052257620005165f82620004e4565b60018101905062000501565b5050565b601f82111562000571576200053b81620003f1565b620005468462000403565b8101602085101562000556578190505b6200056e620005658562000403565b83018262000500565b50505b505050565b5f82821c905092915050565b5f620005935f198460080262000576565b1980831691505092915050565b5f620005ad838362000582565b9150826002028217905092915050565b620005c88262000359565b67ffffffffffffffff811115620005e457620005e362000363565b5b620005f08254620003bd565b620005fd82828562000526565b5f60209050601f83116001811462000633575f84156200061e578287015190505b6200062a8582620005a0565b86555062000699565b601f1984166200064386620003f1565b5f5b828110156200066c5784890151825560018201915060208501945060208101905062000645565b868310156200068c578489015162000688601f89168262000582565b8355505b6001600288020188555050505b505050505050565b612e3980620006af5f395ff3fe608060405234801561000f575f80fd5b506004361061014b575f3560e01c806335bb3e16116100c157806398f2d9781161007a57806398f2d978146103c2578063a217fddf146103f2578063a9059cbb14610410578063d547741f14610440578063dd62ed3e1461045c578063f1624b8f1461048c5761014b565b806335bb3e16146102d957806336568abe146102f5578063595f4da31461031157806370a082311461034457806391d148541461037457806395d89b41146103a45761014b565b80632169f35f116101135780632169f35f1461020757806323b872dd14610223578063248a9ca3146102535780632d345670146102835780632f2ff15d1461029f578063313ce567146102bb5761014b565b806301ffc9a71461014f57806306fdde031461017f578063095ea7b31461019d5780631607e042146101cd57806318160ddd146101e9575b5f80fd5b61016960048036038101906101649190611c9d565b6104a8565b6040516101769190611ce2565b60405180910390f35b610187610521565b6040516101949190611d85565b60405180910390f35b6101b760048036038101906101b29190611e32565b6105b1565b6040516101c49190611ce2565b60405180910390f35b6101e760048036038101906101e29190611ed0565b6105d3565b005b6101f16107a6565b6040516101fe9190611f1d565b60405180910390f35b610221600480360381019061021c9190612062565b6107af565b005b61023d60048036038101906102389190612149565b6109d5565b60405161024a9190611ce2565b60405180910390f35b61026d600480360381019061026891906121cc565b610a03565b60405161027a9190612206565b60405180910390f35b61029d6004803603810190610298919061221f565b610a20565b005b6102b960048036038101906102b4919061224a565b610ab7565b005b6102c3610ad9565b6040516102d09190612297565b60405180910390f35b6102f360048036038101906102ee919061221f565b610ae1565b005b61030f600480360381019061030a919061224a565b610b78565b005b61032b600480360381019061032691906122b0565b610bf3565b60405161033b94939291906122db565b60405180910390f35b61035e6004803603810190610359919061221f565b611043565b60405161036b9190611f1d565b60405180910390f35b61038e6004803603810190610389919061224a565b611088565b60405161039b9190611ce2565b60405180910390f35b6103ac6110ec565b6040516103b99190611d85565b60405180910390f35b6103dc60048036038101906103d791906122b0565b61117c565b6040516103e99190611ce2565b60405180910390f35b6103fa6112a9565b6040516104079190612206565b60405180910390f35b61042a60048036038101906104259190611e32565b6112af565b6040516104379190611ce2565b60405180910390f35b61045a6004803603810190610455919061224a565b6112d1565b005b6104766004803603810190610471919061233a565b6112f3565b6040516104839190611f1d565b60405180910390f35b6104a660048036038101906104a19190612378565b611375565b005b5f7f7965db0b000000000000000000000000000000000000000000000000000000007bffffffffffffffffffffffffffffffffffffffffffffffffffffffff1916827bffffffffffffffffffffffffffffffffffffffffffffffffffffffff1916148061051a575061051982611405565b5b9050919050565b606060038054610530906123e3565b80601f016020809104026020016040519081016040528092919081815260200182805461055c906123e3565b80156105a75780601f1061057e576101008083540402835291602001916105a7565b820191905f5260205f20905b81548152906001019060200180831161058a57829003601f168201915b5050505050905090565b5f806105bb61146e565b90506105c8818585611475565b600191505092915050565b6105f560068360ff16600481106105ed576105ec612413565b5b015433611088565b610634576040517f08c379a000000000000000000000000000000000000000000000000000000000815260040161062b906124b0565b60405180910390fd5b80156106f057600a5f60068460ff166004811061065457610653612413565b5b015481526020019081526020015f206004015f9054906101000a900473ffffffffffffffffffffffffffffffffffffffff1673ffffffffffffffffffffffffffffffffffffffff16630a3b0a4f336040518263ffffffff1660e01b81526004016106be91906124dd565b5f604051808303815f87803b1580156106d5575f80fd5b505af11580156106e7573d5f803e3d5ffd5b505050506107a2565b600a5f60068460ff166004811061070a57610709612413565b5b015481526020019081526020015f206005015f9054906101000a900473ffffffffffffffffffffffffffffffffffffffff1673ffffffffffffffffffffffffffffffffffffffff16630a3b0a4f336040518263ffffffff1660e01b815260040161077491906124dd565b5f604051808303815f87803b15801561078b575f80fd5b505af115801561079d573d5f803e3d5ffd5b505050505b5050565b5f600254905090565b6107d97fdf8b4c520ffe197c5343c6f5aec59570151ef9a492f2c624fd45ddde6135ec4233611088565b610818576040517f08c379a000000000000000000000000000000000000000000000000000000000815260040161080f90612540565b60405180910390fd5b5f60068260ff16600481106108305761082f612413565b5b015490506040518060c0016040528087815260200186815260200185815260200184815260200160405161086390611c2a565b604051809103905ff08015801561087c573d5f803e3d5ffd5b5073ffffffffffffffffffffffffffffffffffffffff1681526020016040516108a490611c2a565b604051809103905ff0801580156108bd573d5f803e3d5ffd5b5073ffffffffffffffffffffffffffffffffffffffff16815250600a5f8381526020019081526020015f205f820151815f0190816108fb91906126fb565b50602082015181600101908161091191906126fb565b50604082015181600201908161092791906126fb565b50606082015181600301908161093d91906126fb565b506080820151816004015f6101000a81548173ffffffffffffffffffffffffffffffffffffffff021916908373ffffffffffffffffffffffffffffffffffffffff16021790555060a0820151816005015f6101000a81548173ffffffffffffffffffffffffffffffffffffffff021916908373ffffffffffffffffffffffffffffffffffffffff160217905550905050505050505050565b5f806109df61146e565b90506109ec858285611487565b6109f7858585611519565b60019150509392505050565b5f60055f8381526020019081526020015f20600101549050919050565b610a4a7fdf8b4c520ffe197c5343c6f5aec59570151ef9a492f2c624fd45ddde6135ec4233611088565b610a89576040517f08c379a0000000000000000000000000000000000000000000000000000000008152600401610a809061283a565b60405180910390fd5b610ab37fdf8b4c520ffe197c5343c6f5aec59570151ef9a492f2c624fd45ddde6135ec4282611609565b5050565b610ac082610a03565b610ac9816116f3565b610ad38383611707565b50505050565b5f6012905090565b610b0b7fdf8b4c520ffe197c5343c6f5aec59570151ef9a492f2c624fd45ddde6135ec4233611088565b610b4a576040517f08c379a0000000000000000000000000000000000000000000000000000000008152600401610b41906128a2565b60405180910390fd5b610b747fdf8b4c520ffe197c5343c6f5aec59570151ef9a492f2c624fd45ddde6135ec4282611707565b5050565b610b8061146e565b73ffffffffffffffffffffffffffffffffffffffff168173ffffffffffffffffffffffffffffffffffffffff1614610be4576040517f6697b23200000000000000000000000000000000000000000000000000000000815260040160405180910390fd5b610bee8282611609565b505050565b606080606080610c1b60068660ff1660048110610c1357610c12612413565b5b015433611088565b610c5a576040517f08c379a0000000000000000000000000000000000000000000000000000000008152600401610c5190612930565b60405180910390fd5b600a5f60068760ff1660048110610c7457610c73612413565b5b015481526020019081526020015f206004015f9054906101000a900473ffffffffffffffffffffffffffffffffffffffff1673ffffffffffffffffffffffffffffffffffffffff166321887c3d336040518263ffffffff1660e01b8152600401610cde91906124dd565b602060405180830381865afa158015610cf9573d5f803e3d5ffd5b505050506040513d601f19601f82011682018060405250810190610d1d9190612962565b15610d5d576040517f08c379a0000000000000000000000000000000000000000000000000000000008152600401610d54906129d7565b60405180910390fd5b600a5f60068760ff1660048110610d7757610d76612413565b5b015481526020019081526020015f205f01600a5f60068860ff1660048110610da257610da1612413565b5b015481526020019081526020015f20600101600a5f60068960ff1660048110610dce57610dcd612413565b5b015481526020019081526020015f20600201600a5f60068a60ff1660048110610dfa57610df9612413565b5b015481526020019081526020015f20600301838054610e18906123e3565b80601f0160208091040260200160405190810160405280929190818152602001828054610e44906123e3565b8015610e8f5780601f10610e6657610100808354040283529160200191610e8f565b820191905f5260205f20905b815481529060010190602001808311610e7257829003601f168201915b50505050509350828054610ea2906123e3565b80601f0160208091040260200160405190810160405280929190818152602001828054610ece906123e3565b8015610f195780601f10610ef057610100808354040283529160200191610f19565b820191905f5260205f20905b815481529060010190602001808311610efc57829003601f168201915b50505050509250818054610f2c906123e3565b80601f0160208091040260200160405190810160405280929190818152602001828054610f58906123e3565b8015610fa35780601f10610f7a57610100808354040283529160200191610fa3565b820191905f5260205f20905b815481529060010190602001808311610f8657829003601f168201915b50505050509150808054610fb6906123e3565b80601f0160208091040260200160405190810160405280929190818152602001828054610fe2906123e3565b801561102d5780601f106110045761010080835404028352916020019161102d565b820191905f5260205f20905b81548152906001019060200180831161101057829003601f168201915b5050505050905093509350935093509193509193565b5f805f8373ffffffffffffffffffffffffffffffffffffffff1673ffffffffffffffffffffffffffffffffffffffff1681526020019081526020015f20549050919050565b5f60055f8481526020019081526020015f205f015f8373ffffffffffffffffffffffffffffffffffffffff1673ffffffffffffffffffffffffffffffffffffffff1681526020019081526020015f205f9054906101000a900460ff16905092915050565b6060600480546110fb906123e3565b80601f0160208091040260200160405190810160405280929190818152602001828054611127906123e3565b80156111725780601f1061114957610100808354040283529160200191611172565b820191905f5260205f20905b81548152906001019060200180831161115557829003601f168201915b5050505050905090565b5f61119f60068360ff166004811061119757611196612413565b5b015433611088565b6111de576040517f08c379a00000000000000000000000000000000000000000000000000000000081526004016111d590612930565b60405180910390fd5b600a5f60068460ff16600481106111f8576111f7612413565b5b015481526020019081526020015f206004015f9054906101000a900473ffffffffffffffffffffffffffffffffffffffff1673ffffffffffffffffffffffffffffffffffffffff166321887c3d336040518263ffffffff1660e01b815260040161126291906124dd565b602060405180830381865afa15801561127d573d5f803e3d5ffd5b505050506040513d601f19601f820116820180604052508101906112a19190612962565b159050919050565b5f801b81565b5f806112b961146e565b90506112c6818585611519565b600191505092915050565b6112da82610a03565b6112e3816116f3565b6112ed8383611609565b50505050565b5f60015f8473ffffffffffffffffffffffffffffffffffffffff1673ffffffffffffffffffffffffffffffffffffffff1681526020019081526020015f205f8373ffffffffffffffffffffffffffffffffffffffff1673ffffffffffffffffffffffffffffffffffffffff1681526020019081526020015f2054905092915050565b61139f7fdf8b4c520ffe197c5343c6f5aec59570151ef9a492f2c624fd45ddde6135ec4233611088565b6113de576040517f08c379a00000000000000000000000000000000000000000000000000000000081526004016113d590612a3f565b60405180910390fd5b61140060068360ff16600481106113f8576113f7612413565b5b015482611707565b505050565b5f7f01ffc9a7000000000000000000000000000000000000000000000000000000007bffffffffffffffffffffffffffffffffffffffffffffffffffffffff1916827bffffffffffffffffffffffffffffffffffffffffffffffffffffffff1916149050919050565b5f33905090565b61148283838360016117f1565b505050565b5f61149284846112f3565b90507fffffffffffffffffffffffffffffffffffffffffffffffffffffffffffffffff81146115135781811015611504578281836040517ffb8f41b20000000000000000000000000000000000000000000000000000000081526004016114fb93929190612a5d565b60405180910390fd5b61151284848484035f6117f1565b5b50505050565b5f73ffffffffffffffffffffffffffffffffffffffff168373ffffffffffffffffffffffffffffffffffffffff1603611589575f6040517f96c6fd1e00000000000000000000000000000000000000000000000000000000815260040161158091906124dd565b60405180910390fd5b5f73ffffffffffffffffffffffffffffffffffffffff168273ffffffffffffffffffffffffffffffffffffffff16036115f9575f6040517fec442f050000000000000000000000000000000000000000000000000000000081526004016115f091906124dd565b60405180910390fd5b6116048383836119c0565b505050565b5f6116148383611088565b156116e9575f60055f8581526020019081526020015f205f015f8473ffffffffffffffffffffffffffffffffffffffff1673ffffffffffffffffffffffffffffffffffffffff1681526020019081526020015f205f6101000a81548160ff02191690831515021790555061168661146e565b73ffffffffffffffffffffffffffffffffffffffff168273ffffffffffffffffffffffffffffffffffffffff16847ff6391f5c32d9c69d2a47ea670b442974b53935d1edc7fd64eb21e047a839171b60405160405180910390a4600190506116ed565b5f90505b92915050565b611704816116ff61146e565b611bd9565b50565b5f6117128383611088565b6117e757600160055f8581526020019081526020015f205f015f8473ffffffffffffffffffffffffffffffffffffffff1673ffffffffffffffffffffffffffffffffffffffff1681526020019081526020015f205f6101000a81548160ff02191690831515021790555061178461146e565b73ffffffffffffffffffffffffffffffffffffffff168273ffffffffffffffffffffffffffffffffffffffff16847f2f8788117e7eff1d82e926ec794901d17c78024a50270940304540a733656f0d60405160405180910390a4600190506117eb565b5f90505b92915050565b5f73ffffffffffffffffffffffffffffffffffffffff168473ffffffffffffffffffffffffffffffffffffffff1603611861575f6040517fe602df0500000000000000000000000000000000000000000000000000000000815260040161185891906124dd565b60405180910390fd5b5f73ffffffffffffffffffffffffffffffffffffffff168373ffffffffffffffffffffffffffffffffffffffff16036118d1575f6040517f94280d620000000000000000000000000000000000000000000000000000000081526004016118c891906124dd565b60405180910390fd5b8160015f8673ffffffffffffffffffffffffffffffffffffffff1673ffffffffffffffffffffffffffffffffffffffff1681526020019081526020015f205f8573ffffffffffffffffffffffffffffffffffffffff1673ffffffffffffffffffffffffffffffffffffffff1681526020019081526020015f208190555080156119ba578273ffffffffffffffffffffffffffffffffffffffff168473ffffffffffffffffffffffffffffffffffffffff167f8c5be1e5ebec7d5bd14f71427d1e84f3dd0314c0f7b2291e5b200ac8c7c3b925846040516119b19190611f1d565b60405180910390a35b50505050565b5f73ffffffffffffffffffffffffffffffffffffffff168373ffffffffffffffffffffffffffffffffffffffff1603611a10578060025f828254611a049190612abf565b92505081905550611ade565b5f805f8573ffffffffffffffffffffffffffffffffffffffff1673ffffffffffffffffffffffffffffffffffffffff1681526020019081526020015f2054905081811015611a99578381836040517fe450d38c000000000000000000000000000000000000000000000000000000008152600401611a9093929190612a5d565b60405180910390fd5b8181035f808673ffffffffffffffffffffffffffffffffffffffff1673ffffffffffffffffffffffffffffffffffffffff1681526020019081526020015f2081905550505b5f73ffffffffffffffffffffffffffffffffffffffff168273ffffffffffffffffffffffffffffffffffffffff1603611b25578060025f8282540392505081905550611b6f565b805f808473ffffffffffffffffffffffffffffffffffffffff1673ffffffffffffffffffffffffffffffffffffffff1681526020019081526020015f205f82825401925050819055505b8173ffffffffffffffffffffffffffffffffffffffff168373ffffffffffffffffffffffffffffffffffffffff167fddf252ad1be2c89b69c2b068fc378daa952ba7f163c4a11628f55a4df523b3ef83604051611bcc9190611f1d565b60405180910390a3505050565b611be38282611088565b611c265780826040517fe2517d3f000000000000000000000000000000000000000000000000000000008152600401611c1d929190612af2565b60405180910390fd5b5050565b6102ea80612b1a83390190565b5f604051905090565b5f80fd5b5f80fd5b5f7fffffffff0000000000000000000000000000000000000000000000000000000082169050919050565b611c7c81611c48565b8114611c86575f80fd5b50565b5f81359050611c9781611c73565b92915050565b5f60208284031215611cb257611cb1611c40565b5b5f611cbf84828501611c89565b91505092915050565b5f8115159050919050565b611cdc81611cc8565b82525050565b5f602082019050611cf55f830184611cd3565b92915050565b5f81519050919050565b5f82825260208201905092915050565b5f5b83811015611d32578082015181840152602081019050611d17565b5f8484015250505050565b5f601f19601f8301169050919050565b5f611d5782611cfb565b611d618185611d05565b9350611d71818560208601611d15565b611d7a81611d3d565b840191505092915050565b5f6020820190508181035f830152611d9d8184611d4d565b905092915050565b5f73ffffffffffffffffffffffffffffffffffffffff82169050919050565b5f611dce82611da5565b9050919050565b611dde81611dc4565b8114611de8575f80fd5b50565b5f81359050611df981611dd5565b92915050565b5f819050919050565b611e1181611dff565b8114611e1b575f80fd5b50565b5f81359050611e2c81611e08565b92915050565b5f8060408385031215611e4857611e47611c40565b5b5f611e5585828601611deb565b9250506020611e6685828601611e1e565b9150509250929050565b5f60ff82169050919050565b611e8581611e70565b8114611e8f575f80fd5b50565b5f81359050611ea081611e7c565b92915050565b611eaf81611cc8565b8114611eb9575f80fd5b50565b5f81359050611eca81611ea6565b92915050565b5f8060408385031215611ee657611ee5611c40565b5b5f611ef385828601611e92565b9250506020611f0485828601611ebc565b9150509250929050565b611f1781611dff565b82525050565b5f602082019050611f305f830184611f0e565b92915050565b5f80fd5b5f80fd5b7f4e487b71000000000000000000000000000000000000000000000000000000005f52604160045260245ffd5b611f7482611d3d565b810181811067ffffffffffffffff82111715611f9357611f92611f3e565b5b80604052505050565b5f611fa5611c37565b9050611fb18282611f6b565b919050565b5f67ffffffffffffffff821115611fd057611fcf611f3e565b5b611fd982611d3d565b9050602081019050919050565b828183375f83830152505050565b5f61200661200184611fb6565b611f9c565b90508281526020810184848401111561202257612021611f3a565b5b61202d848285611fe6565b509392505050565b5f82601f83011261204957612048611f36565b5b8135612059848260208601611ff4565b91505092915050565b5f805f805f60a0868803121561207b5761207a611c40565b5b5f86013567ffffffffffffffff81111561209857612097611c44565b5b6120a488828901612035565b955050602086013567ffffffffffffffff8111156120c5576120c4611c44565b5b6120d188828901612035565b945050604086013567ffffffffffffffff8111156120f2576120f1611c44565b5b6120fe88828901612035565b935050606086013567ffffffffffffffff81111561211f5761211e611c44565b5b61212b88828901612035565b925050608061213c88828901611e92565b9150509295509295909350565b5f805f606084860312156121605761215f611c40565b5b5f61216d86828701611deb565b935050602061217e86828701611deb565b925050604061218f86828701611e1e565b9150509250925092565b5f819050919050565b6121ab81612199565b81146121b5575f80fd5b50565b5f813590506121c6816121a2565b92915050565b5f602082840312156121e1576121e0611c40565b5b5f6121ee848285016121b8565b91505092915050565b61220081612199565b82525050565b5f6020820190506122195f8301846121f7565b92915050565b5f6020828403121561223457612233611c40565b5b5f61224184828501611deb565b91505092915050565b5f80604083850312156122605761225f611c40565b5b5f61226d858286016121b8565b925050602061227e85828601611deb565b9150509250929050565b61229181611e70565b82525050565b5f6020820190506122aa5f830184612288565b92915050565b5f602082840312156122c5576122c4611c40565b5b5f6122d284828501611e92565b91505092915050565b5f6080820190508181035f8301526122f38187611d4d565b905081810360208301526123078186611d4d565b9050818103604083015261231b8185611d4d565b9050818103606083015261232f8184611d4d565b905095945050505050565b5f80604083850312156123505761234f611c40565b5b5f61235d85828601611deb565b925050602061236e85828601611deb565b9150509250929050565b5f806040838503121561238e5761238d611c40565b5b5f61239b85828601611e92565b92505060206123ac85828601611deb565b9150509250929050565b7f4e487b71000000000000000000000000000000000000000000000000000000005f52602260045260245ffd5b5f60028204905060018216806123fa57607f821691505b60208210810361240d5761240c6123b6565b5b50919050565b7f4e487b71000000000000000000000000000000000000000000000000000000005f52603260045260245ffd5b7f4f6e6c792074686520636f7272656374206d6f64656c2063616e2073746174755f8201527f7320757064617465730000000000000000000000000000000000000000000000602082015250565b5f61249a602983611d05565b91506124a582612440565b604082019050919050565b5f6020820190508181035f8301526124c78161248e565b9050919050565b6124d781611dc4565b82525050565b5f6020820190506124f05f8301846124ce565b92915050565b7f4f6e6c792041444d494e2063616e2061646420757064617465730000000000005f82015250565b5f61252a601a83611d05565b9150612535826124f6565b602082019050919050565b5f6020820190508181035f8301526125578161251e565b9050919050565b5f819050815f5260205f209050919050565b5f6020601f8301049050919050565b5f82821b905092915050565b5f600883026125ba7fffffffffffffffffffffffffffffffffffffffffffffffffffffffffffffffff8261257f565b6125c4868361257f565b95508019841693508086168417925050509392505050565b5f819050919050565b5f6125ff6125fa6125f584611dff565b6125dc565b611dff565b9050919050565b5f819050919050565b612618836125e5565b61262c61262482612606565b84845461258b565b825550505050565b5f90565b612640612634565b61264b81848461260f565b505050565b5b8181101561266e576126635f82612638565b600181019050612651565b5050565b601f8211156126b3576126848161255e565b61268d84612570565b8101602085101561269c578190505b6126b06126a885612570565b830182612650565b50505b505050565b5f82821c905092915050565b5f6126d35f19846008026126b8565b1980831691505092915050565b5f6126eb83836126c4565b9150826002028217905092915050565b61270482611cfb565b67ffffffffffffffff81111561271d5761271c611f3e565b5b61272782546123e3565b612732828285612672565b5f60209050601f831160018114612763575f8415612751578287015190505b61275b85826126e0565b8655506127c2565b601f1984166127718661255e565b5f5b8281101561279857848901518255600182019150602085019450602081019050612773565b868310156127b557848901516127b1601f8916826126c4565b8355505b6001600288020188555050505b505050505050565b7f4f6e6c792061646d696e2063616e207265766f6b65207065726d697373696f6e5f8201527f7300000000000000000000000000000000000000000000000000000000000000602082015250565b5f612824602183611d05565b915061282f826127ca565b604082019050919050565b5f6020820190508181035f83015261285181612818565b9050919050565b7f4f6e6c792061646d696e2063616e206772616e74207065726d697373696f6e735f82015250565b5f61288c602083611d05565b915061289782612858565b602082019050919050565b5f6020820190508181035f8301526128b981612880565b9050919050565b7f4f6e6c792074686520636f7272656374206d6f64656c2063616e2066657463685f8201527f2075706461746573000000000000000000000000000000000000000000000000602082015250565b5f61291a602883611d05565b9150612925826128c0565b604082019050919050565b5f6020820190508181035f8301526129478161290e565b9050919050565b5f8151905061295c81611ea6565b92915050565b5f6020828403121561297757612976611c40565b5b5f6129848482850161294e565b91505092915050565b7f4e6f2075706461746520666f722074686973206d6f64656c00000000000000005f82015250565b5f6129c1601883611d05565b91506129cc8261298d565b602082019050919050565b5f6020820190508181035f8301526129ee816129b5565b9050919050565b7f4f6e6c792061646d696e2063616e206164642076656869636c657300000000005f82015250565b5f612a29601b83611d05565b9150612a34826129f5565b602082019050919050565b5f6020820190508181035f830152612a5681612a1d565b9050919050565b5f606082019050612a705f8301866124ce565b612a7d6020830185611f0e565b612a8a6040830184611f0e565b949350505050565b7f4e487b71000000000000000000000000000000000000000000000000000000005f52601160045260245ffd5b5f612ac982611dff565b9150612ad483611dff565b9250828201905080821115612aec57612aeb612a92565b5b92915050565b5f604082019050612b055f8301856124ce565b612b1260208301846121f7565b939250505056fe608060405234801561000f575f80fd5b506102cd8061001d5f395ff3fe608060405234801561000f575f80fd5b5060043610610034575f3560e01c80630a3b0a4f1461003857806321887c3d14610054575b5f80fd5b610052600480360381019061004d9190610239565b610084565b005b61006e60048036038101906100699190610239565b610189565b60405161007b919061027e565b60405180910390f35b60015f8273ffffffffffffffffffffffffffffffffffffffff1673ffffffffffffffffffffffffffffffffffffffff1681526020019081526020015f205f9054906101000a900460ff16610186575f81908060018154018082558091505060019003905f5260205f20015f9091909190916101000a81548173ffffffffffffffffffffffffffffffffffffffff021916908373ffffffffffffffffffffffffffffffffffffffff1602179055506001805f8373ffffffffffffffffffffffffffffffffffffffff1673ffffffffffffffffffffffffffffffffffffffff1681526020019081526020015f205f6101000a81548160ff0219169083151502179055505b50565b5f60015f8373ffffffffffffffffffffffffffffffffffffffff1673ffffffffffffffffffffffffffffffffffffffff1681526020019081526020015f205f9054906101000a900460ff169050919050565b5f80fd5b5f73ffffffffffffffffffffffffffffffffffffffff82169050919050565b5f610208826101df565b9050919050565b610218816101fe565b8114610222575f80fd5b50565b5f813590506102338161020f565b92915050565b5f6020828403121561024e5761024d6101db565b5b5f61025b84828501610225565b91505092915050565b5f8115159050919050565b61027881610264565b82525050565b5f6020820190506102915f83018461026f565b9291505056fea264697066735822122079e67edeb550c426230f3dd44e0571d46865054f5ba6f36e5fab68782d9f394a64736f6c63430008150033a2646970667358221220f4c6f54a559b419ed0fed77e3ae410bf8c778a1d9f096b1b5b06aafddbb2b82a64736f6c63430008150033",
  "immutableReferences": {},
  "source": "// // SPDX-License-Identifier: GPL-3.0\n// To Compile Run: solcjs --optimize --bin SecureUpdate.sol -o Smart_Contract_Binary\n\npragma solidity >=0.8.0 <0.9.0;\n\n// Information on OpenZeppelin Contracts can be found at: https://docs.openzeppelin.com/contracts/4.x/access-control\nimport \"../node_modules/@openzeppelin/contracts/access/AccessControl.sol\";\nimport \"../node_modules/@openzeppelin/contracts/token/ERC20/ERC20.sol\";\n\n// STRUCTURE OF THE CONTRACT\n// 1. State Variables\n// 2. Events\n// 3. Modifiers\n// 4. Constructor\n// 5. Functions\n\n// ROLES\n// [ADMIN, MODEL_A, MODEL_B, MODEL_C]\n// ADMIN Privs: Can add/remove roles, can add/remove tokens, can add/remove use, can add/remove updates\n// MODEL_A Privs: Can fetch updates specific to MODEL A\n// MODEL_B Privs: Can fetch updates specific to MODEL B\n// MODEL_C Privs: Can fetch updates specific to MODEL C\n\n// METHODS\n// [addUpdate, fetchUpdate, updateStatus, addVehicle, grantPermission]\n\ncontract SecureUpdate is ERC20, AccessControl {\n    // Roles\n    // Note: The bottom 4 lines can be replaced with hard-coded hashes to save compute on deployment\n    bytes32 private constant ADMIN = keccak256(\"ADMIN\");\n    bytes32 private constant MODEL_A = keccak256(\"MODEL_A\");\n    bytes32 private constant MODEL_B = keccak256(\"MODEL_B\");\n    bytes32 private constant MODEL_C = keccak256(\"MODEL_C\");\n    bytes32[4] private permissionArray = [ADMIN, MODEL_A, MODEL_B, MODEL_C];\n\n    // Define Update Struct\n    struct update {\n        string key;\n        string checksum;\n        string cid;\n        string updateVersion;\n        Set updateSuccess;\n        Set updateFail;\n    }\n\n    // Dictionary storing information for current updates\n    mapping(bytes32 => update) private curUpdates;\n\n    constructor() ERC20(\"MyToken\", \"TKN\") {\n        _grantRole(ADMIN, msg.sender);\n    }\n\n    function hasUpdate(uint8 _model) public view returns (bool) {\n        require(\n            hasRole(permissionArray[_model], msg.sender),\n            \"Only the correct model can fetch updates\"\n        );\n        return (\n            !curUpdates[permissionArray[_model]].updateSuccess.has(msg.sender)\n        );\n    }\n\n    function addUpdate(\n        string memory _key,\n        string memory _checksum,\n        string memory _cid,\n        string memory _updateVersion,\n        uint8 _model\n    ) public {\n        require(hasRole(ADMIN, msg.sender), \"Only ADMIN can add updates\");\n        bytes32 _tmodel = permissionArray[_model];\n        curUpdates[_tmodel] = update(\n            _key,\n            _checksum,\n            _cid,\n            _updateVersion,\n            new Set(),\n            new Set()\n        );\n    }\n\n    function fetchUpdate(\n        uint8 _model\n    )\n        public\n        view\n        returns (string memory, string memory, string memory, string memory)\n    {\n        // Check has the correct role\n        require(\n            hasRole(permissionArray[_model], msg.sender),\n            \"Only the correct model can fetch updates\"\n        );\n        // Check that system is not up to date\n        require(\n            !(\n                curUpdates[permissionArray[_model]].updateSuccess.has(\n                    msg.sender\n                )\n            ),\n            \"No update for this model\"\n        );\n        return (\n            curUpdates[permissionArray[_model]].key,\n            curUpdates[permissionArray[_model]].checksum,\n            curUpdates[permissionArray[_model]].cid,\n            curUpdates[permissionArray[_model]].updateVersion\n        );\n    }\n\n    function updateUpdateStatus(uint8 _model, bool _status) public {\n        // Check has the correct role\n        require(\n            hasRole(permissionArray[_model], msg.sender),\n            \"Only the correct model can status updates\"\n        );\n        if (_status)\n            curUpdates[permissionArray[_model]].updateSuccess.add(msg.sender);\n        else curUpdates[permissionArray[_model]].updateFail.add(msg.sender);\n    }\n\n    function addVehicle(uint8 _model, address _vehicle) public {\n        // Check has the correct role\n        require(hasRole(ADMIN, msg.sender), \"Only admin can add vehicles\");\n        _grantRole(permissionArray[_model], _vehicle);\n    }\n\n    function grantAdmin(address _address) public {\n        // Check has the correct role\n        require(hasRole(ADMIN, msg.sender), \"Only admin can grant permissions\");\n        _grantRole(ADMIN, _address);\n    }\n\n    function revokeAdmin(address _address) public {\n        // Check has the correct role\n        require(\n            hasRole(ADMIN, msg.sender),\n            \"Only admin can revoke permissions\"\n        );\n        _revokeRole(ADMIN, _address);\n    }\n}\n\ncontract Set {\n    // Define Set Variables\n    address[] values;\n    mapping(address => bool) is_in;\n\n    function add(address a) public {\n        if (!is_in[a]) {\n            values.push(a);\n            is_in[a] = true;\n        }\n    }\n\n    function has(address a) public view returns (bool) {\n        return is_in[a];\n    }\n}\n",
  "sourcePath": "C:\\Users\\soham\\Documents\\Projects\\Latis\\Car-Manufacturer\\contracts\\SecureUpdate.sol",
  "compiler": {
    "name": "solc",
    "version": "0.8.21+commit.d9974bed.Emscripten.clang"
  },
  "schemaVersion": "3.4.16",
  "updatedAt": "2023-10-17T22:21:51.186Z",
  "devdoc": {
    "errors": {
      "AccessControlBadConfirmation()": [
        {
          "details": "The caller of a function is not the expected one. NOTE: Don't confuse with {AccessControlUnauthorizedAccount}."
        }
      ],
      "AccessControlUnauthorizedAccount(address,bytes32)": [
        {
          "details": "The `account` is missing a role."
        }
      ],
      "ERC20InsufficientAllowance(address,uint256,uint256)": [
        {
          "details": "Indicates a failure with the `spender`s `allowance`. Used in transfers.",
          "params": {
            "allowance": "Amount of tokens a `spender` is allowed to operate with.",
            "needed": "Minimum amount required to perform a transfer.",
            "spender": "Address that may be allowed to operate on tokens without being their owner."
          }
        }
      ],
      "ERC20InsufficientBalance(address,uint256,uint256)": [
        {
          "details": "Indicates an error related to the current `balance` of a `sender`. Used in transfers.",
          "params": {
            "balance": "Current balance for the interacting account.",
            "needed": "Minimum amount required to perform a transfer.",
            "sender": "Address whose tokens are being transferred."
          }
        }
      ],
      "ERC20InvalidApprover(address)": [
        {
          "details": "Indicates a failure with the `approver` of a token to be approved. Used in approvals.",
          "params": {
            "approver": "Address initiating an approval operation."
          }
        }
      ],
      "ERC20InvalidReceiver(address)": [
        {
          "details": "Indicates a failure with the token `receiver`. Used in transfers.",
          "params": {
            "receiver": "Address to which tokens are being transferred."
          }
        }
      ],
      "ERC20InvalidSender(address)": [
        {
          "details": "Indicates a failure with the token `sender`. Used in transfers.",
          "params": {
            "sender": "Address whose tokens are being transferred."
          }
        }
      ],
      "ERC20InvalidSpender(address)": [
        {
          "details": "Indicates a failure with the `spender` to be approved. Used in approvals.",
          "params": {
            "spender": "Address that may be allowed to operate on tokens without being their owner."
          }
        }
      ]
    },
    "events": {
      "Approval(address,address,uint256)": {
        "details": "Emitted when the allowance of a `spender` for an `owner` is set by a call to {approve}. `value` is the new allowance."
      },
      "RoleAdminChanged(bytes32,bytes32,bytes32)": {
        "details": "Emitted when `newAdminRole` is set as ``role``'s admin role, replacing `previousAdminRole` `DEFAULT_ADMIN_ROLE` is the starting admin for all roles, despite {RoleAdminChanged} not being emitted signaling this."
      },
      "RoleGranted(bytes32,address,address)": {
        "details": "Emitted when `account` is granted `role`. `sender` is the account that originated the contract call, an admin role bearer except when using {AccessControl-_setupRole}."
      },
      "RoleRevoked(bytes32,address,address)": {
        "details": "Emitted when `account` is revoked `role`. `sender` is the account that originated the contract call:   - if using `revokeRole`, it is the admin role bearer   - if using `renounceRole`, it is the role bearer (i.e. `account`)"
      },
      "Transfer(address,address,uint256)": {
        "details": "Emitted when `value` tokens are moved from one account (`from`) to another (`to`). Note that `value` may be zero."
      }
    },
    "kind": "dev",
    "methods": {
      "allowance(address,address)": {
        "details": "See {IERC20-allowance}."
      },
      "approve(address,uint256)": {
        "details": "See {IERC20-approve}. NOTE: If `value` is the maximum `uint256`, the allowance is not updated on `transferFrom`. This is semantically equivalent to an infinite approval. Requirements: - `spender` cannot be the zero address."
      },
      "balanceOf(address)": {
        "details": "See {IERC20-balanceOf}."
      },
      "decimals()": {
        "details": "Returns the number of decimals used to get its user representation. For example, if `decimals` equals `2`, a balance of `505` tokens should be displayed to a user as `5.05` (`505 / 10 ** 2`). Tokens usually opt for a value of 18, imitating the relationship between Ether and Wei. This is the default value returned by this function, unless it's overridden. NOTE: This information is only used for _display_ purposes: it in no way affects any of the arithmetic of the contract, including {IERC20-balanceOf} and {IERC20-transfer}."
      },
      "getRoleAdmin(bytes32)": {
        "details": "Returns the admin role that controls `role`. See {grantRole} and {revokeRole}. To change a role's admin, use {_setRoleAdmin}."
      },
      "grantRole(bytes32,address)": {
        "details": "Grants `role` to `account`. If `account` had not been already granted `role`, emits a {RoleGranted} event. Requirements: - the caller must have ``role``'s admin role. May emit a {RoleGranted} event."
      },
      "hasRole(bytes32,address)": {
        "details": "Returns `true` if `account` has been granted `role`."
      },
      "name()": {
        "details": "Returns the name of the token."
      },
      "renounceRole(bytes32,address)": {
        "details": "Revokes `role` from the calling account. Roles are often managed via {grantRole} and {revokeRole}: this function's purpose is to provide a mechanism for accounts to lose their privileges if they are compromised (such as when a trusted device is misplaced). If the calling account had been revoked `role`, emits a {RoleRevoked} event. Requirements: - the caller must be `callerConfirmation`. May emit a {RoleRevoked} event."
      },
      "revokeRole(bytes32,address)": {
        "details": "Revokes `role` from `account`. If `account` had been granted `role`, emits a {RoleRevoked} event. Requirements: - the caller must have ``role``'s admin role. May emit a {RoleRevoked} event."
      },
      "supportsInterface(bytes4)": {
        "details": "See {IERC165-supportsInterface}."
      },
      "symbol()": {
        "details": "Returns the symbol of the token, usually a shorter version of the name."
      },
      "totalSupply()": {
        "details": "See {IERC20-totalSupply}."
      },
      "transfer(address,uint256)": {
        "details": "See {IERC20-transfer}. Requirements: - `to` cannot be the zero address. - the caller must have a balance of at least `value`."
      },
      "transferFrom(address,address,uint256)": {
        "details": "See {IERC20-transferFrom}. Emits an {Approval} event indicating the updated allowance. This is not required by the EIP. See the note at the beginning of {ERC20}. NOTE: Does not update the allowance if the current allowance is the maximum `uint256`. Requirements: - `from` and `to` cannot be the zero address. - `from` must have a balance of at least `value`. - the caller must have allowance for ``from``'s tokens of at least `value`."
      }
    },
    "version": 1
  },
  "userdoc": {
    "kind": "user",
    "methods": {},
    "version": 1
  }
}