{
  "contractName": "Set",
  "abi": [
    {
      "inputs": [
        {
          "internalType": "address",
          "name": "a",
          "type": "address"
        }
      ],
      "name": "add",
      "outputs": [],
      "stateMutability": "nonpayable",
      "type": "function"
    },
    {
      "inputs": [
        {
          "internalType": "address",
          "name": "a",
          "type": "address"
        }
      ],
      "name": "has",
      "outputs": [
        {
          "internalType": "bool",
          "name": "",
          "type": "bool"
        }
      ],
      "stateMutability": "view",
      "type": "function"
    }
  ],
  "bytecode": "0x608060405234801561000f575f80fd5b506102cd8061001d5f395ff3fe608060405234801561000f575f80fd5b5060043610610034575f3560e01c80630a3b0a4f1461003857806321887c3d14610054575b5f80fd5b610052600480360381019061004d9190610239565b610084565b005b61006e60048036038101906100699190610239565b610189565b60405161007b919061027e565b60405180910390f35b60015f8273ffffffffffffffffffffffffffffffffffffffff1673ffffffffffffffffffffffffffffffffffffffff1681526020019081526020015f205f9054906101000a900460ff16610186575f81908060018154018082558091505060019003905f5260205f20015f9091909190916101000a81548173ffffffffffffffffffffffffffffffffffffffff021916908373ffffffffffffffffffffffffffffffffffffffff1602179055506001805f8373ffffffffffffffffffffffffffffffffffffffff1673ffffffffffffffffffffffffffffffffffffffff1681526020019081526020015f205f6101000a81548160ff0219169083151502179055505b50565b5f60015f8373ffffffffffffffffffffffffffffffffffffffff1673ffffffffffffffffffffffffffffffffffffffff1681526020019081526020015f205f9054906101000a900460ff169050919050565b5f80fd5b5f73ffffffffffffffffffffffffffffffffffffffff82169050919050565b5f610208826101df565b9050919050565b610218816101fe565b8114610222575f80fd5b50565b5f813590506102338161020f565b92915050565b5f6020828403121561024e5761024d6101db565b5b5f61025b84828501610225565b91505092915050565b5f8115159050919050565b61027881610264565b82525050565b5f6020820190506102915f83018461026f565b9291505056fea264697066735822122079e67edeb550c426230f3dd44e0571d46865054f5ba6f36e5fab68782d9f394a64736f6c63430008150033",
  "immutableReferences": {},
  "source": "// // SPDX-License-Identifier: GPL-3.0\n// To Compile Run: solcjs --optimize --bin SecureUpdate.sol -o Smart_Contract_Binary\n\npragma solidity >=0.8.0 <0.9.0;\n\n// Information on OpenZeppelin Contracts can be found at: https://docs.openzeppelin.com/contracts/4.x/access-control\nimport \"../node_modules/@openzeppelin/contracts/access/AccessControl.sol\";\nimport \"../node_modules/@openzeppelin/contracts/token/ERC20/ERC20.sol\";\n\n// STRUCTURE OF THE CONTRACT\n// 1. State Variables\n// 2. Events\n// 3. Modifiers\n// 4. Constructor\n// 5. Functions\n\n// ROLES\n// [ADMIN, MODEL_A, MODEL_B, MODEL_C]\n// ADMIN Privs: Can add/remove roles, can add/remove tokens, can add/remove use, can add/remove updates\n// MODEL_A Privs: Can fetch updates specific to MODEL A\n// MODEL_B Privs: Can fetch updates specific to MODEL B\n// MODEL_C Privs: Can fetch updates specific to MODEL C\n\n// METHODS\n// [addUpdate, fetchUpdate, updateStatus, addVehicle, grantPermission]\n\ncontract SecureUpdate is ERC20, AccessControl {\n    // Roles\n    // Note: The bottom 4 lines can be replaced with hard-coded hashes to save compute on deployment\n    bytes32 private constant ADMIN = keccak256(\"ADMIN\");\n    bytes32 private constant MODEL_A = keccak256(\"MODEL_A\");\n    bytes32 private constant MODEL_B = keccak256(\"MODEL_B\");\n    bytes32 private constant MODEL_C = keccak256(\"MODEL_C\");\n    bytes32[4] private permissionArray = [ADMIN, MODEL_A, MODEL_B, MODEL_C];\n\n    // Define Update Struct\n    struct update {\n        string key;\n        string checksum;\n        string cid;\n        string updateVersion;\n        Set updateSuccess;\n        Set updateFail;\n    }\n\n    // Dictionary storing information for current updates\n    mapping(bytes32 => update) private curUpdates;\n\n    constructor() ERC20(\"MyToken\", \"TKN\") {\n        _grantRole(ADMIN, msg.sender);\n    }\n\n    function hasUpdate(uint8 _model) public view returns (bool) {\n        require(\n            hasRole(permissionArray[_model], msg.sender),\n            \"Only the correct model can fetch updates\"\n        );\n        return (\n            !curUpdates[permissionArray[_model]].updateSuccess.has(msg.sender)\n        );\n    }\n\n    function addUpdate(\n        string memory _key,\n        string memory _checksum,\n        string memory _cid,\n        string memory _updateVersion,\n        uint8 _model\n    ) public {\n        require(hasRole(ADMIN, msg.sender), \"Only ADMIN can add updates\");\n        bytes32 _tmodel = permissionArray[_model];\n        curUpdates[_tmodel] = update(\n            _key,\n            _checksum,\n            _cid,\n            _updateVersion,\n            new Set(),\n            new Set()\n        );\n    }\n\n    function fetchUpdate(\n        uint8 _model\n    )\n        public\n        view\n        returns (string memory, string memory, string memory, string memory)\n    {\n        // Check has the correct role\n        require(\n            hasRole(permissionArray[_model], msg.sender),\n            \"Only the correct model can fetch updates\"\n        );\n        // Check that system is not up to date\n        require(\n            !(\n                curUpdates[permissionArray[_model]].updateSuccess.has(\n                    msg.sender\n                )\n            ),\n            \"No update for this model\"\n        );\n        return (\n            curUpdates[permissionArray[_model]].key,\n            curUpdates[permissionArray[_model]].checksum,\n            curUpdates[permissionArray[_model]].cid,\n            curUpdates[permissionArray[_model]].updateVersion\n        );\n    }\n\n    function updateUpdateStatus(uint8 _model, bool _status) public {\n        // Check has the correct role\n        require(\n            hasRole(permissionArray[_model], msg.sender),\n            \"Only the correct model can status updates\"\n        );\n        if (_status)\n            curUpdates[permissionArray[_model]].updateSuccess.add(msg.sender);\n        else curUpdates[permissionArray[_model]].updateFail.add(msg.sender);\n    }\n\n    function addVehicle(uint8 _model, address _vehicle) public {\n        // Check has the correct role\n        require(hasRole(ADMIN, msg.sender), \"Only admin can add vehicles\");\n        _grantRole(permissionArray[_model], _vehicle);\n    }\n\n    function grantAdmin(address _address) public {\n        // Check has the correct role\n        require(hasRole(ADMIN, msg.sender), \"Only admin can grant permissions\");\n        _grantRole(ADMIN, _address);\n    }\n\n    function revokeAdmin(address _address) public {\n        // Check has the correct role\n        require(\n            hasRole(ADMIN, msg.sender),\n            \"Only admin can revoke permissions\"\n        );\n        _revokeRole(ADMIN, _address);\n    }\n}\n\ncontract Set {\n    // Define Set Variables\n    address[] values;\n    mapping(address => bool) is_in;\n\n    function add(address a) public {\n        if (!is_in[a]) {\n            values.push(a);\n            is_in[a] = true;\n        }\n    }\n\n    function has(address a) public view returns (bool) {\n        return is_in[a];\n    }\n}\n",
  "sourcePath": "C:\\Users\\soham\\Documents\\Projects\\Latis\\Car-Manufacturer\\contracts\\SecureUpdate.sol",
  "compiler": {
    "name": "solc",
    "version": "0.8.21+commit.d9974bed.Emscripten.clang"
  },
  "schemaVersion": "3.4.16",
  "updatedAt": "2023-10-17T22:21:51.218Z",
  "devdoc": {
    "kind": "dev",
    "methods": {},
    "version": 1
  },
  "userdoc": {
    "kind": "user",
    "methods": {},
    "version": 1
  }
}